:020000040800F2
:100000000000022045210008F11D0008F91D00082C
:10001000011E0008091E0008111E00080000000053
:1000200000000000000000000000000091730008C4
:10003000191E000800000000E1750008497600085C
:1000400095210008952100089521000895210008B8
:1000500095210008952100089521000895210008A8
:100060009521000895210008952100089521000898
:100070009521000895210008952100089521000888
:100080009521000895210008952100080000000036
:1000900000000000000000000000000095210008A2
:1000A000291E0008952100089521000895210008C7
:1000B0009521000895210008952100089521000848
:1000C0009521000895210008952100089521000838
:1000D00095210008451E0008952100080000000039
:1000E00095210008952100089521000800000000D6
:1000F0000000000000000000000000009521000842
:1001000000000000952100089521000895210008B5
:1001100000000000000000000000000000000000DF
:100120009521000895210008591E00089521000816
:100130009521000800000000000000000000000001
:1001400000000000000000000000000095210008F1
:1001500095210008952100086D1E000895210008D2
:100160009521000895210008000000000000000013
:10017000000000000000000000000000000000007F
:1001800000000000952100080000000000000000B1
:080190009521000895210008EB
:1001A00010B5054C237833B9044B13B10448AFF3B1
:1001B00000800123237010BD6000002000000000BB
:1001C000F487000808B5034B1BB103490348AFF39C
:1001D000008008BD0000000064000020F4870008D3
:1001E00053B94AB9002908BF00281CBF4FF0FF319E
:1001F0004FF0FF3000F088B9ADF1080C6DE904CE86
:1002000000F006F8DDF804E0DDE9022304B07047F1
:100210002DE9F047089D8E4604468846002B4AD1BA
:100220008A42174662D9B2FA82F64EB1C6F120036D
:1002300001FA06F820FA03F3B74043EA0808B4408D
:100240004FEA174E1FFA87FCB8FBFEF1230C0EFB9A
:10025000118843EA084301FB0CF29A4209D9FB18C2
:1002600001F1FF3080F0EA809A4240F2E7800239E3
:100270003B449A1AA3B2B2FBFEF00EFB102243EAF3
:10028000024300FB0CFC9C4509D9FB1800F1FF322E
:1002900080F0D6809C4540F2D3803B44023840EA4F
:1002A0000140A3EB0C0300211DB1F3400022C5E97E
:1002B0000032BDE8F0878B4205D90DB1C5E90001D8
:1002C00000210846F5E7B3FA83F1002946D17345CA
:1002D00002D3824200F20581841A6EEB03020120F0
:1002E0009046002DE5D0C5E90048E2E7002A00F07D
:1002F0009080B2FA82F6002E40F0A4808A1A030C95
:100300004FEA174E80B2BCB20121B2FBFEFC0EFBDD
:100310001C2243EA024304FB0CF29A4207D9FB1861
:100320000CF1FF3802D29A4200F2E080C4469B1AD8
:10033000B3FBFEF20EFB123340EA034302FB04F46C
:100340009C4207D9FB1802F1FF3002D29C4200F216
:10035000CA8002461B1B42EA0C40A5E7C1F12006F9
:100360008B4022FA06F71F430EFA01F420FA06F337
:100370002EFA06FE4FEA1749234300FA01F81FFA46
:1003800087FCBEFBF9F01C0C09FB10EE44EA0E449E
:1003900000FB0CFEA64502FA01F209D93C1900F156
:1003A000FF3A80F09C80A64540F2998002383C4498
:1003B000A4EB0E041FFA83FEB4FBF9F309FB13440C
:1003C0004EEA044403FB0CFCA44508D93C1903F194
:1003D000FF3E80F08280A4457FD9023B3C4443EA43
:1003E0000040A4EB0C04A0FB02EC64457346E1461C
:1003F00062D35FD05DB1B8EB030264EB090404FA89
:1004000006F622FA01F31E43CC40C5E90064002140
:100410004FE7B1FBF2FC010C41EA0E4180B240EA29
:1004200001423B4638463C46B846BE462026B1FB14
:10043000F7F1A2EB080241EA0C4166E7014618E732
:1004400010462CE7C6F120022EFA02F3B740B14065
:1004500020FA02F24FEA174E0A43B3FBFEF8BCB291
:100460000EFB1833110C41EA034108FB04F9B040BC
:1004700089454FEA104380B23ED9791808F1FF3C14
:1004800001D289451FD8A1EB0901B1FBFEF909FB97
:1004900004F80EFB191192B242EA0142424529D2F8
:1004A000BA1809F1FF31C4D24245C2D2A9F1020102
:1004B0003A44BEE7F0459DD2BEEB02036CEB070C5D
:1004C0000138E14696E7A7EB09094944A8F1020C77
:1004D000B1FBFEF909FB04F8DBE773467FE7504602
:1004E00066E70846FDE63B44023A33E7ACF1020C0E
:1004F0003B441CE749469CE7A1EB0901C446B1FB1C
:10050000FEF909FB04F8C4E7704700BF80B485B06A
:1005100000AFF860B9607A60FB68074A1A60BB6890
:10052000064A1A607B6880221A6000BF1437BD46F5
:100530005DF8047B704700BF7C0000201C01002098
:1005400080B483B000AF78607B684FF000021A601F
:100550007B684FF000025A607B684FF000029A609F
:100560007B684FF00002DA607B684FF000021A618E
:1005700000BF0C37BD465DF8047B704780B489B07E
:1005800000AF87ED050AC7ED040AF860B9607A602C
:100590003B60D7ED047A9FED147A67EE877A97ED8A
:1005A000057A77EE677AC7ED077AD7ED047A9FED83
:1005B0000E7A67EE877A97ED057A77EE277AC7EDA0
:1005C000067AFB68FA691A607B68FA691A60BB6888
:1005D000BA691A603B68BA691A6000BF2437BD4621
:1005E0005DF8047B704700BF9A99993D80B483B051
:1005F00000AF87ED010A07E0D7ED017A9FED157A8C
:1006000077EEC77AC7ED017AD7ED017A9FED127ABE
:10061000F4EEC77AF1EE10FAEEDC07E0D7ED017ADE
:100620009FED0C7A77EE877AC7ED017AD7ED017AE4
:100630009FED0A7AF4EEC77AF1EE10FAEED97B68F4
:1006400007EE903AB0EE670A0C37BD465DF8047BC2
:10065000704700BFDB0FC940DB0F4940DB0F49C0CB
:1006600080B52DED028B8EB000AFF86008461146C4
:100670001A4603467B810B463B811346FB80624B47
:100680007B63B7F90A3007EE903AF8EEE77A97ED18
:100690000D7A67EE277AC7ED0C7AB7F9083007EEC6
:1006A000903AF8EEE77A97ED0D7A67EE277AC7ED84
:1006B0000B7AB7F9063007EE903AF8EEE77A97ED45
:1006C0000D7A67EE277AC7ED0A7AB7F9483007EE58
:1006D000903AF8EEE77A97ED0D7A67EE277AC7ED54
:1006E000097A97ED0C7AD7ED0A7A37EE277AF0EE91
:1006F000006AC7EE267AC7ED087A97ED0B7AD7ED38
:10070000097A37EE277AF0EE006AC7EE267AC7ED4F
:10071000077A97ED077AD7ED087A37EE277AF0EE69
:10072000006AC7EE267AC7ED067A97ED077AD7ED0D
:10073000087A37EE677ADFED356AC7EE267AC7EDBD
:10074000057A97ED067ADFED326AC7EE267AFB6806
:10075000C3ED037A97ED057ADFED2D6AC7EE267AB1
:10076000FB68C3ED047AFB6893ED008AFB6893EDA8
:10077000027AD7ED056AB0EE006AC6EE867A77EEA9
:10078000277AB0EE670A07F0C1FAB0EE407AD7EDEB
:10079000067A67EE277A78EE277AFB68C3ED007A4F
:1007A000FB6893ED018AFB6893ED027AD7ED056A49
:1007B000B0EE006AC6EE867A77EE277AB0EE670A68
:1007C00007F0E8FAB0EE407AD7ED067A67EE277ABE
:1007D00078EE277AFB68C3ED017AFB6893ED027A25
:1007E000D7ED057A77EE277AB0EE670AFFF7FEFEBF
:1007F000F0EE407AFB68C3ED027A00BF3837BD46A1
:10080000BDEC028B80BD00BF4D52F3389A99193E62
:100810000AD7233C80B485B000AFF860B9607A6035
:100820003B603B681B687A68D31A1A46BB681A603B
:100830003B687A681A60FB681A68BB681B681A44D0
:10084000FB681A6000BF1437BD465DF8047B704733
:1008500080B584B000AF87ED030AC7ED020A87EDCB
:10086000011AC7ED001A01224FF40041564802F068
:100870003DFBD7ED037AF5EEC07AF1EE10FA0ADB14
:1008800001220821514802F031FB002210214F487B
:1008900002F02CFB09E0002208214C4802F026FB64
:1008A00001221021494802F021FBD7ED027AF5EE32
:1008B000C07AF1EE10FA0BDB01224FF4805143486D
:1008C00002F014FB002204213F4802F00FFB0AE073
:1008D00000224FF480513D4802F008FB0122042120
:1008E000394802F003FBD7ED017AF5EEC07AF1EE5C
:1008F00010FA0CDB01224FF48061334802F0F6FA63
:1009000000224FF48051304802F0F0FA0BE0002250
:100910004FF480612C4802F0E9FA01224FF4805133
:10092000294802F0E3FAD7ED007AF5EEC07AF1EE4D
:1009300010FA0CDB01224FF40051234802F0D6FAE2
:1009400000224FF48041204802F0D0FA0BE0002250
:100950004FF400511C4802F0C9FA01224FF48041C3
:10096000194802F0C3FAD7ED037AF0EEE77A184B94
:100970001B68FCEEE77A17EE902A5A63D7ED027AED
:10098000F0EEE77A124B1B68FCEEE77A17EE902A3E
:100990009A63D7ED017AF0EEE77A0D4B1B68FCEE17
:1009A000E77A17EE902ADA63D7ED007AF0EEE77A6D
:1009B000074B1B68FCEEE77A17EE902A1A6400BF1B
:1009C0001037BD4680BD00BF000402400000024059
:1009D0001C030020B0B596B000AF01F0DDFB00F0C5
:1009E000DBF800F0A7FB00F07DFB00F03DF900F024
:1009F000FFF900F051FA00F0A3FA00F0F5FA00F068
:100A000047FB4D48FFF79CFD4C4800F099FE9FEDD9
:100A10004C2ADFED4C1A9FED4C1ADFED4C0A9FED8E
:100A20004C0A4C4800F0E8FD9FED452ADFED451AE1
:100A30009FED451ADFED450A9FED450A464800F057
:100A4000DBFD9FED3F2ADFED3F1A9FED3F1ADFED03
:100A50003F0A9FED3F0A414800F0CEFD9FED382A46
:100A6000DFED381A9FED381ADFED380A9FED380AAE
:100A70003B4800F0C1FD00213A4802F0E7FF0421A5
:100A8000384803F03BFF0821364803F037FF0C21BC
:100A9000344802F0DBFF3C21334803F02DF93C21C0
:100AA000324803F029F93C21314803F025F93C2173
:100AB000304803F021F90E222F49304804F090F914
:100AC0002F4B07F13C041D460FCD0FC495E80700DE
:100AD00084E8070007F13C030021184605F0EBFA13
:100AE0000346284A1360284B07F120041D460FCD0A
:100AF0000FC495E8070084E8070007F120030021F0
:100B0000184605F0D8FA0346204A1360204B3C1DD6
:100B10001D460FCD0FC495E8070084E807003B1D74
:100B20000021184605F0C7FA03461A4A136005F07B
:100B3000BBFA00BFFDE700BF98050020AC05002010
:100B400000389CC500389C450AD7233C0000484328
:100B50000000E144B4050020CC050020E40500209D
:100B6000FC0500201C03002064030020AC030020CF
:100B7000F40300203C0400203406002084040020FC
:100B8000188800088C050020408800089005002087
:100B9000688800089405002080B594B000AF07F184
:100BA000200330220021184606F0CEFF07F10C0387
:100BB00000221A605A609A60DA601A610023BB60F2
:100BC000274B1B6C264A43F080531364244B1B6C49
:100BD00003F08053BB60BB6800237B60214B1B6824
:100BE000204A43F4404313601E4B1B6803F4404308
:100BF0007B607B6801233B624FF480337B6202237E
:100C0000BB634FF48003FB630C233B6460237B6472
:100C10000223BB640423FB6407F12003184602F09F
:100C20007FF90346002B01D000F0E0FC0F23FB60AE
:100C300002233B6100237B614FF48053BB6100239F
:100C4000FB6107F10C030321184602F0E1FB0346A8
:100C5000002B01D000F0CAFC00BF5037BD4680BD5C
:100C6000003802400070004080B596B000AF07F138
:100C7000480300221A605A609A60DA6007F1400364
:100C800000221A605A6007F1240300221A605A6099
:100C90009A60DA601A615A619A613B1D2022002134
:100CA000184606F051FF504B504A1A604E4B002236
:100CB0005A604D4B00229A604B4B41F28732DA600A
:100CC000494B00221A61484B00225A61464B0022D0
:100CD0009A61454802F0AEFD0346002B01D000F0BA
:100CE00085FC4FF48053BB6407F1480319463E4826
:100CF00003F042FA0346002B01D000F077FC3A489B
:100D000002F04AFE0346002B01D000F06FFC0023E6
:100D10003B6400237B6407F140031946324803F02B
:100D200099FE0346002B01D000F060FC60237B623B
:100D30000023BB620023FB6200233B6300237B6331
:100D40000023BB630023FB6307F124030022194641
:100D5000254803F04FF90346002B01D000F046FC74
:100D600007F12403042219461F4803F043F9034600
:100D7000002B01D000F03AFC07F1240308221946A9
:100D8000194803F037F90346002B01D000F02EFC80
:100D900007F124030C221946134803F02BF90346EC
:100DA000002B01D000F022FC00237B600023BB60FD
:100DB0000023FB6000233B6100237B614FF4005361
:100DC000BB6100233B623B1D1946074803F0B0FEA0
:100DD0000346002B01D000F009FC034800F086FE1A
:100DE00000BF5837BD4680BD1C03002000000140F5
:100DF00080B58CB000AF07F10C0324220021184607
:100E000006F0A2FE3B1D00221A605A60214B4FF0F3
:100E100080421A601F4B00225A601E4B00229A60CB
:100E20001C4B4FF0FF32DA601A4B00221A61194B4B
:100E300000229A610323FB6000233B6101237B6155
:100E40000023BB610023FB6100233B6201237B6223
:100E50000023BB620023FB6207F10C0319460D4817
:100E600002F0A4FE0346002B01D000F0BFFB0023DC
:100E70007B600023BB603B1D1946064803F0EAFD7A
:100E80000346002B01D000F0B1FB00BF3037BD4658
:100E900080BD00BF6403002080B58CB000AF07F1B7
:100EA0000C0324220021184606F04EFE3B1D0022B2
:100EB0001A605A60204B214A1A601F4B00225A6068
:100EC0001D4B00229A601C4B4FF6FF72DA601A4BE2
:100ED00000221A61184B00229A610323FB60002351
:100EE0003B6101237B610023BB610023FB61002385
:100EF0003B6201237B620023BB620023FB6207F19C
:100F00000C0319460C4802F051FE0346002B01D099
:100F100000F06CFB00237B600023BB603B1D194687
:100F2000054803F097FD0346002B01D000F05EFB5F
:100F300000BF3037BD4680BDAC0300200004004038
:100F400080B58CB000AF07F10C03242200211846B5
:100F500006F0FAFD3B1D00221A605A60204B214A20
:100F60001A601F4B00225A601D4B00229A601C4BD6
:100F70004FF6FF72DA601A4B00221A61184B0022FA
:100F80009A610323FB6000233B6101237B61002303
:100F9000BB610023FB6100233B6201237B620023D2
:100FA000BB620023FB6207F10C0319460C4802F0F8
:100FB000FDFD0346002B01D000F018FB00237B60F1
:100FC0000023BB603B1D1946054803F043FD034663
:100FD000002B01D000F00AFB00BF3037BD4680BDBA
:100FE000F40300200008004080B58CB000AF07F18A
:100FF0000C0324220021184606F0A6FD3B1D00220A
:101000001A605A60204B214A1A601F4B00225A6016
:101010001D4B00229A601C4B4FF0FF32DA601A4BD6
:1010200000221A61184B00229A610323FB600023FF
:101030003B6101237B610023BB610023FB61002333
:101040003B6201237B620023BB620023FB6207F14A
:101050000C0319460C4802F0A9FD0346002B01D0F1
:1010600000F0C4FA00237B600023BB603B1D1946DF
:10107000054803F0EFFC0346002B01D000F0B6FA60
:1010800000BF3037BD4680BD3C040020000C00404E
:1010900080B500AF114B124A1A60104B4FF4E13289
:1010A0005A600E4B00229A600C4B0022DA600B4B08
:1010B00000221A61094B0C225A61084B00229A61E6
:1010C000064B0022DA61054803F0BDFD0346002B04
:1010D00001D000F08BFA00BF80BD00BF8404002067
:1010E0000010014080B582B000AF00237B60104B40
:1010F0001B6B0F4A43F4800313630D4B1B6B03F40C
:1011000080037B607B68002205213A2001F03EF9D4
:101110003A2001F057F900220521462001F036F966
:10112000462001F04FF900BF0837BD4680BD00BF23
:101130000038024080B588B000AF07F10C030022F0
:101140001A605A609A60DA601A610023BB602B4B08
:101150001B6B2A4A43F080031363284B1B6B03F07D
:101160008003BB60BB6800237B60244B1B6B234A5E
:1011700043F001031363214B1B6B03F001037B60FE
:101180007B6800233B601D4B1B6B1C4A43F0020332
:1011900013631A4B1B6B03F002033B603B68002296
:1011A00041F21801164801F0A1FE00224FF204415D
:1011B000144801F09BFE41F21803FB6001233B61E0
:1011C00000237B610023BB6107F10C0319460C4827
:1011D00001F008FD4FF20443FB6001233B61002353
:1011E0007B610023BB6107F10C031946054801F040
:1011F000F9FC00BF2037BD4680BD00BF003802406B
:10120000000002400004024080B582B000AF786068
:101210007B681B68084A93420AD1084B1B6801216E
:10122000184604F0A9FF0E220549064803F0D8FD30
:1012300000BF0837BD4680BD001001409405002066
:10124000340600208404002080B594B002AF78609A
:10125000774B1B685A6A07F12401764B7648FFF7F3
:10126000D9FA764B1B685A6A07F12001744B75480E
:10127000FFF7D0FA744B1B685A6A07F11C01734BD5
:101280007348FFF7C7FA734B1B685A6A07F11801D6
:10129000714B7248FFF7BEFA7B6A19B23B6A1AB209
:1012A000FB6918B2BB691BB2009303466C48FFF799
:1012B000D7F97B6A07EE903AF8EEE77A77EEA77AED
:1012C0009FED687A67EE877A9FED677A27EE877AD7
:1012D000DFED666AC7EE267AC7ED117A3B6A07EE44
:1012E000903AF8EEE77A77EEA77A9FED5E7A67EEAE
:1012F000877A9FED5D7A27EE877ADFED5C6AC7EE2D
:10130000267AC7ED107AFB6907EE903AF8EEE77A95
:1013100077EEA77A9FED537A67EE877A9FED527A40
:1013200027EE877ADFED516AC7EE267AC7ED0F7A8E
:10133000BB6907EE903AF8EEE77A77EEA77A9FED71
:10134000497A67EE877A9FED487A27EE877ADFED54
:10135000476AC7EE267AC7ED0E7A454800F05FFA75
:101360000346002B4AD0434BD3ED017A414B93ED1A
:10137000027A07F1080307F10C0207F1100107F1E7
:101380001400F0EE470AB0EE670AFFF7F7F8D7ED62
:10139000057AD7ED110AB0EE670A374800F053F925
:1013A00087ED0D0AD7ED047AD7ED100AB0EE670A83
:1013B000324800F048F987ED0C0AD7ED037AD7EDF3
:1013C0000F0AB0EE670A2E4800F03DF987ED0B0AD0
:1013D000D7ED027AD7ED0E0AB0EE670A294800F081
:1013E00032F987ED0A0AD7ED0A1A97ED0B1AD7EDF5
:1013F0000C0A97ED0D0AFFF72BFA15E0DFED221A24
:101400009FED211ADFED200A9FED1F0AFFF720FA5A
:10141000194800F087F9194800F084F9184800F0DD
:1014200081F9184800F07EF90A2004F090FE0FE7D9
:10143000640300201406002024060020AC030020D2
:101440001806002028060020F40300201C060020B7
:101450002C0600203C04002020060020300600203E
:1014600098050020DB0F4940B81E053DCDCC8C41CE
:10147000AC05002074060020B4050020CC05002037
:10148000E4050020FC0500200000000080B582B0CB
:1014900000AF786000F0B6FE03461946034800F03E
:1014A0005FF90A2004F053FE00BFF3E7AC0500200B
:1014B00080B586B000AF786007F10C034FF0FF32C3
:1014C0000121184604F098FEFB68082BF4D133493B
:1014D000334800F05FFD314B5B7B002BECD000F01C
:1014E00091FE034619462F4800F066F92B4B1B7BF3
:1014F00003F00203002B03D02A4800F072F908E041
:10150000264B1B7B03F00103002B02D0254800F083
:1015100075F9224B1B7B03F00403002B02D02248F9
:10152000FFF70EF81D4B1A78204B1A7000F06AFE78
:1015300003461E4A53601C4B1B681C4A93601A4B9F
:101540005B681A4AD360184B9B68184A1361164BA4
:10155000DB68164A5361144B1B69144A9361144BA0
:101560001B68124AD361134B1B68104A1362124B5B
:101570001B680E4A5362114B1B680C4A9362094B5D
:101580001A780A4B83F82C200D49084800F052FDC8
:101590002E220B490B4803F0A7FB8DE774060020B1
:1015A00034060020AC0500209805002084060020A9
:1015B00024060020280600202C06002030060020EB
:1015C000440600208404002080B582B000AF78601B
:1015D0007B681B68044A934201D100F0FFFD00BF05
:1015E0000837BD4680BD00BF0040014080B400AF59
:1015F00072B600BF00BFFDE780B487B000AF78616E
:1016000087ED040AC7ED030A87ED021AC7ED011A38
:1016100087ED002A7B693A691A607B69FA685A602B
:101620007B69BA689A607B697A681A617B693A68F3
:10163000DA607B694FF000025A6100BF1C37BD467B
:101640005DF8047B704780B489B000AFF86087ED27
:10165000020AC7ED010A97ED027AD7ED017A77EE1B
:10166000677AC7ED067AFB6893ED057AFB68D3EDE0
:10167000016AFB68D3ED027A66EEA76AD7ED067AB7
:1016800066EEA77A77EE277AC7ED057AFB6893EDC9
:10169000007AD7ED067A67EE277A97ED057A77EE2E
:1016A000277AC7ED047AFB68D3ED047A97ED047AC4
:1016B000B4EEE77AF1EE10FA0DDDFB681B69FB6111
:1016C000D7ED067AF5EEC07AF1EE10FA20D5FB6878
:1016D0007A695A611CE0FB68D3ED037A97ED047ACE
:1016E000B4EEE77AF1EE10FA0DD5FB68DB68FB612A
:1016F000D7ED067AF5EEC07AF1EE10FA08DDFB6858
:101700007A695A6104E03B69FB61FB687A695A6156
:10171000FB6907EE903AB0EE670A2437BD465DF8E4
:10172000047B704780B483B000AF78607B684FF073
:1017300000025A6100BF0C37BD465DF8047B70475C
:1017400080B483B000AF78607B6800221A707B6839
:1017500000225A6000BF0C37BD465DF8047B70471D
:1017600080B483B000AF786039607B681B78032B4E
:101770001CD801A252F823F089170008A717000807
:1017800091170008A71700087B6801221A700DE066
:101790007B685B683A68D31AB3F5967F05D97B6896
:1017A00003221A7001E000BF00E000BF00BF0C3749
:1017B000BD465DF8047B704780B483B000AF7860AD
:1017C00039607B683A685A607B681B78012B02D1CC
:1017D0007B6802221A7000BF0C37BD465DF8047B9F
:1017E000704780B483B000AF78607B6803221A70C2
:1017F00000BF0C37BD465DF8047B704780B483B0F2
:1018000000AF78607B681B78032B02D17B680122D4
:101810001A7000BF0C37BD465DF8047B704780B47A
:1018200083B000AF78607B681B78022B0CBF01236C
:101830000023DBB218460C37BD465DF8047B7047C9
:1018400080B582B000AF00237B60124B5B6C114A05
:1018500043F4804353640F4B5B6C03F480437B6021
:101860007B6800233B600B4B1B6C0A4A43F08053A0
:101870001364084B1B6C03F080533B603B680022F1
:101880000F216FF0010000F081FD00BF0837BD4659
:1018900080BD00BF0038024080B584B000AF7860E2
:1018A0007B681B680E4A934215D10023FB600D4BE9
:1018B0005B6C0C4A43F0010353640A4B5B6C03F00E
:1018C0000103FB60FB6800220F21182000F05EFD81
:1018D000182000F077FD00BF1037BD4680BD00BF67
:1018E000000001400038024080B590B000AF786041
:1018F00007F12C0300221A605A609A60DA601A61BC
:101900007B681B68B3F1804F4AD10023BB62714BE7
:101910001B6C704A43F0010313646E4B1B6C03F0A5
:101920000103BB62BB6A00237B626A4B1B6B694A83
:1019300043F001031363674B1B6B03F001037B62EE
:101940007B6A00233B62634B1B6B624A43F00203DA
:101950001363604B1B6B03F002033B623B6A202363
:10196000FB6202233B6300237B630023BB630123F1
:10197000FB6307F12C031946574801F033F908239C
:10198000FB6202233B6300237B630023BB630123D1
:10199000FB6307F12C031946504801F023F994E04A
:1019A0007B681B684E4A93422CD10023FB61494B54
:1019B0001B6C484A43F002031364464B1B6C03F054
:1019C0000203FB61FB690023BB61424B1B6B414A75
:1019D00043F0010313633F4B1B6B03F00103BB6137
:1019E000BB69C023FB6202233B6300237B630023AC
:1019F000BB630223FB6307F12C031946364801F051
:101A0000F1F862E07B681B68364A93422CD10023D0
:101A10007B61304B1B6C2F4A43F0040313642D4B46
:101A20001B6C03F004037B617B6900233B61294B42
:101A30001B6B284A43F002031363264B1B6B03F016
:101A400002033B613B69C023FB6202233B6300232B
:101A50007B630023BB630223FB6307F12C0319465E
:101A60001E4801F0BFF830E07B681B681E4A9342B5
:101A70002BD10023FB60174B1B6C164A43F0080365
:101A80001364144B1B6C03F00803FB60FB6800231A
:101A9000BB60104B1B6B0F4A43F0010313630D4BEC
:101AA0001B6B03F00103BB60BB680323FB620223D3
:101AB0003B6300237B630023BB630223FB6307F1CB
:101AC0002C031946044801F08DF800BF4037BD468D
:101AD00080BD00BF00380240000002400004024008
:101AE0000004004000080040000C004080B58AB0AF
:101AF00000AF786007F1140300221A605A609A6000
:101B0000DA601A617B681B68214A93423CD100234A
:101B10003B61204B1B6B1F4A43F0020313631D4BB9
:101B20001B6B03F002033B613B690023FB60194B15
:101B30001B6B184A43F001031363164B1B6B03F036
:101B40000103FB60FB6803237B610223BB6100236D
:101B5000FB6100233B6201237B6207F114031946FA
:101B60000D4801F03FF84FF410637B610223BB6125
:101B70000023FB6100233B6201237B6207F1140316
:101B80001946064801F02EF800BF2837BD4680BD33
:101B90000000014000380240000402400000024002
:101BA00080B58AB000AF786007F1140300221A6094
:101BB0005A609A60DA601A617B681B684C4A9342EB
:101BC00040F0918000233B614A4B5B6C494A43F0F3
:101BD00010035364474B5B6C03F010033B613B699C
:101BE0000023FB60434B1B6B424A43F0010313632A
:101BF000404B1B6B03F00103FB60FB684FF4C063B9
:101C00007B610223BB610023FB6103233B6207234B
:101C10007B6207F114031946374800F0E3FF374BA6
:101C2000374A1A60354B4FF000625A60334B00223E
:101C30009A60324B0022DA60304B4FF480621A61B6
:101C40002E4B00225A612D4B00229A612B4B002211
:101C5000DA612A4B00221A62284B00225A62274876
:101C600000F0BEFB0346002B01D0FFF7BFFC7B68F2
:101C7000224ADA63214A7B689363224B224A1A6024
:101C8000204B4FF000625A601E4B40229A601D4B61
:101C90000022DA601B4B4FF480621A61194B00225C
:101CA0005A61184B00229A61164B0022DA61154BDB
:101CB00000221A62134B00225A62124800F090FB75
:101CC0000346002B01D0FFF791FC7B680D4A9A6315
:101CD0000C4A7B68936300220521252000F056FB07
:101CE000252000F06FFB00BF2837BD4680BD00BF38
:101CF000001001400038024000000240CC040020E7
:101D0000406402402C050020B864024080B58CB0CD
:101D100000AF78600023BB6200237B620023BB60BE
:101D20002E4B5B6C2D4A43F4803353642B4B5B6C1E
:101D300003F48033BB60BB6807F10C0207F11003AA
:101D40001146184601F044FD01F02EFDB862BB6A51
:101D5000234AA2FB03239B0C013B7B62214B224ABB
:101D60001A60204B40F2E732DA601E4A7B6A536009
:101D70001C4B00221A611B4B00229A60194B002257
:101D80009A61184801F056FD034687F82F3097F8FE
:101D90002F30002B1BD1134801F09CFD034687F820
:101DA0002F3097F82F30002B11D1182000F00AFBAC
:101DB0007B680F2B08D800227968182000F0E6FA1B
:101DC0000A4A7B68136002E0012387F82F3097F8F6
:101DD0002F3018463037BD4680BD00BF0038024066
:101DE00083DE1B43B40600200040014004000020B5
:101DF00080B400AF00BFFDE780B400AF00BFFDE7D7
:101E000080B400AF00BFFDE780B400AF00BFFDE7C6
:101E100080B400AF00BFFDE780B400AF00BFBD4697
:101E20005DF8047B7047000080B500AF034801F007
:101E3000F1FF034801F0EEFF00BF80BD1C0300204E
:101E4000B406002080B500AF024802F0EFFF00BFEB
:101E500080BD00BF8404002080B500AF024800F0C0
:101E600057FC00BF80BD00BFCC04002080B500AF90
:101E7000024800F04DFC00BF80BD00BF2C050020D3
:101E800080B400AF064BD3F88830054A43F47003A2
:101E9000C2F8883000BFBD465DF8047B704700BFC4
:101EA00000ED00E080B483B000AF87ED010A386038
:101EB0007A683B681A6000BF0C37BD465DF8047B4A
:101EC000704780B485B000AF78607B681B68FB60AA
:101ED000FB6807EE903AB0EE670A1437BD465DF82E
:101EE000047B704780B483B000AF786039607A6853
:101EF0003B681A6000BF0C37BD465DF8047B704735
:101F000080B483B000AF786039607A683B681A604B
:101F100000BF0C37BD465DF8047B704780B485B0C8
:101F200000AF78600B467B804FF6FF73FB81002388
:101F3000BB8122E0BB897A6813441B781A46FB896F
:101F40005340FB810023FB7211E0FB8903F0010386
:101F5000002B06D0FB895B089AB20D4B5340FB81E6
:101F600002E0FB895B08FB81FB7A0133FB72FB7AA1
:101F7000072BEAD9BB890133BB81BA897B889A4296
:101F8000D8D3FB8918461437BD465DF8047B7047EB
:101F900001A0FFFF80B584B000AF786039603B6876
:101FA00000225A737B681B78AA2B3DD17B680133D2
:101FB0001B78552B38D17B680C331B781AB27B68A1
:101FC0000D331B781BB21B021BB213431BB2FB81E8
:101FD0000C217868FFF7A2FF0346BB81FA89BB8911
:101FE0009A4223D17B6802331A783B681A707B6867
:101FF00003331846FFF765FFF0EE407A3B68C3ED08
:10200000017A7B6807331846FFF75BFFF0EE407AF2
:102010003B68C3ED027A7B680B331A783B681A730E
:102020003B6801225A7302E000BF00E000BF103796
:10203000BD4680BD80B584B000AF786039603B6834
:1020400055221A703B680133AA221A703B6802338A
:102050007A6812781A707B685A683B6803331946AD
:102060001046FFF73FFF7B68D3ED027A3B680733EA
:102070001846B0EE670AFFF715FF7B68D3ED037AC9
:102080003B680B331846B0EE670AFFF70BFF7B681F
:10209000D3ED047A3B680F331846B0EE670AFFF7BA
:1020A00001FF7B68D3ED057A3B6813331846B0EE29
:1020B000670AFFF7F7FE7B68D3ED067A3B681733B4
:1020C0001846B0EE670AFFF7EDFE7B68DA693B68F9
:1020D0001B3319461046FFF713FF7B681A6A3B68EB
:1020E0001F3319461046FFF70BFF7B685A6A3B689F
:1020F000233319461046FFF703FF7B689A6A3B6853
:10210000273319461046FFF7FBFE3B682B337A68EE
:1021100092F82C201A702C213868FFF7FFFE034636
:10212000FB813B682C33FA89D2B21A70FB891B0AF7
:102130009AB23B682D33D2B21A7000BF1037BD4639
:1021400080BD0000DFF834D0FFF79AFE0C480D493F
:102150000D4A002302E0D458C4500433C4188C4202
:10216000F9D30A4A0A4C002301E013600432A24268
:10217000FBD305F04FFDFEF72DFC70470000022059
:1021800000000020600000208C8C0008600000200F
:1021900094450020FEE7000080B500AF0E4B1B68A1
:1021A0000D4A43F4007313600B4B1B680A4A43F457
:1021B00080631360084B1B68074A43F48073136005
:1021C000032000F0D8F80F20FFF7A0FDFFF738FB41
:1021D0000023184680BD00BF003C024080B400AF21
:1021E000064B1B781A46064B1B681344044A1360BF
:1021F00000BFBD465DF8047B704700BF08000020AB
:10220000FC06002080B400AF034B1B681846BD4697
:102210005DF8047B704700BFFC06002080B485B0E9
:1022200000AF78607B6803F00703FB600C4BDB6852
:10223000BB60BA684FF6FF031340BB60FB681A022D
:10224000BB68134343F0BF6343F40033BB60044AED
:10225000BB68D36000BF1437BD465DF8047B704790
:1022600000ED00E080B400AF044BDB681B0A03F014
:1022700007031846BD465DF8047B704700ED00E09B
:1022800080B483B000AF0346FB7197F90730002B91
:102290000BDBFB7903F01F02074997F907305B0955
:1022A000012000FA02F241F8232000BF0C37BD469E
:1022B0005DF8047B704700BF00E100E080B483B0AC
:1022C00000AF03463960FB7197F90730002B0ADB3A
:1022D0003B68DAB20C4997F907301201D2B20B44CD
:1022E00083F800230AE03B68DAB20849FB7903F07F
:1022F0000F03043B1201D2B20B441A7600BF0C3715
:10230000BD465DF8047B704700E100E000ED00E0B1
:1023100080B489B000AFF860B9607A60FB6803F000
:102320000703FB61FB69C3F10703042B28BF0423E8
:10233000BB61FB690433062B02D9FB69033B00E058
:1023400000237B614FF0FF32BB6902FA03F3DA43EB
:10235000BB681A407B699A404FF0FF317B6901FAF4
:1023600003F3D9437B680B40134318462437BD461B
:102370005DF8047B704780B582B000AF7860786804
:10238000FFF74CFF00BF0837BD4680BD80B586B063
:1023900000AF0346B9607A60FB7300237B61FFF7EF
:1023A00061FF78617A68B9687869FFF7B1FF024622
:1023B00097F90F3011461846FFF780FF00BF183716
:1023C000BD4680BD80B582B000AF0346FB7197F972
:1023D00007301846FFF754FF00BF0837BD4680BDE1
:1023E00080B586B000AF786000237B61FFF70AFFFD
:1023F00038617B68002B01D1012399E07B680222C0
:1024000083F835207B68002283F834207B681B68C2
:102410001A687B681B6822F001021A600FE0FFF760
:10242000F1FE02463B69D31A052B08D97B682022AE
:102430005A657B68032283F83520032378E07B68A4
:102440001B681B6803F00103002BE8D17B681B6845
:102450001B687B617A69384B13407B617B685A68E3
:102460007B689B681A437B68DB681A437B681B693F
:102470001A437B685B691A437B689B691A437B68D4
:10248000DB691A437B681B6A13437A6913437B61D8
:102490007B685B6A042B07D17B68DA6A7B681B6BFD
:1024A00013437A6913437B617B681B687A691A60FE
:1024B0007B681B685B697B617B6923F007037B6139
:1024C0007B685B6A7A6913437B617B685B6A042B78
:1024D00017D17B689B6A7A6913437B617B68DB6AEF
:1024E000002B0ED0786800F001FB0346002B08D0CB
:1024F0007B6840225A657B68012283F835200123DE
:1025000016E07B681B687A695A61786800F0B8FA4F
:102510000346FB607B68DB6D3F229A40FB689A6054
:102520007B6800225A657B68012283F835200023EE
:1025300018461837BD4680BD3F8010F080B586B084
:1025400000AFF860B9607A603B600023FB75FB6800
:102550009B6D3B61FB6893F83430012B01D1022362
:1025600040E0FB68012283F83420FB6893F83530A3
:10257000DBB2012B2FD1FB68022283F83520FB68E8
:1025800000225A653B687A68B968F86800F04AFA30
:10259000FB68DB6D3F229A403B699A60FB681B68D1
:1025A0001A68FB681B6842F016021A60FB681B6C15
:1025B000002B07D0FB681B681A68FB681B6842F099
:1025C00008021A60FB681B681A68FB681B6842F007
:1025D00001021A6005E0FB68002283F83420022320
:1025E000FB75FB7D18461837BD4680BD80B584B0AD
:1025F00000AF78607B689B6DFB60FFF703FEB860FF
:102600007B6893F83530DBB2022B08D07B688022E0
:102610005A657B68002283F83420012352E07B68EE
:102620001B681A687B681B6822F016021A607B68B8
:102630001B685A697B681B6822F080025A617B68BC
:102640001B6C002B03D17B689B6C002B07D07B6835
:102650001B681A687B681B6822F008021A607B6896
:102660001B681A687B681B6822F001021A6013E07D
:10267000FFF7C8FD0246BB68D31A052B0CD97B684F
:1026800020225A657B68032283F835207B6800226C
:1026900083F83420032315E07B681B681B6803F074
:1026A0000103002BE4D17B68DB6D3F229A40FB687D
:1026B0009A607B68012283F835207B68002283F8CA
:1026C0003420002318461037BD4680BD80B483B047
:1026D00000AF78607B6893F83530DBB2022B04D012
:1026E0007B6880225A6501230CE07B68052283F811
:1026F00035207B681B681A687B681B6822F0010222
:102700001A60002318460C37BD465DF8047B7047FD
:1027100080B586B000AF78600023BB608E4B1B682D
:102720008E4AA2FB03239B0A7B617B689B6D3B6106
:102730003B691B68FB607B68DB6D08229A40FB6885
:102740001340002B1AD07B681B681B6803F004033E
:10275000002B13D07B681B681A687B681B6822F00B
:1027600004021A607B68DB6D08229A403B699A601C
:102770007B685B6D43F001027B685A657B68DB6DAB
:1027800001229A40FB681340002B12D07B681B6823
:102790005B6903F08003002B0BD07B68DB6D0122AB
:1027A0009A403B699A607B685B6D43F002027B68EC
:1027B0005A657B68DB6D04229A40FB681340002B4E
:1027C00012D07B681B681B6803F00203002B0BD040
:1027D0007B68DB6D04229A403B699A607B685B6D85
:1027E00043F004027B685A657B68DB6D10229A40D7
:1027F000FB681340002B43D07B681B681B6803F009
:102800000803002B3CD07B68DB6D10229A403B69AB
:102810009A607B681B681B6803F48023002B18D028
:102820007B681B681B6803F40023002B08D17B68BE
:102830001B6C002B24D07B681B6C786898471FE0CA
:102840007B689B6C002B1BD07B689B6C78689847DF
:1028500016E07B681B681B6803F48073002B07D1AC
:102860007B681B681A687B681B6822F008021A6084
:102870007B681B6C002B03D07B681B6C78689847C7
:102880007B68DB6D20229A40FB681340002B00F030
:102890008F807B681B681B6803F01003002B00F01F
:1028A00087807B68DB6D20229A403B699A607B6859
:1028B00093F83530DBB2052B36D17B681B681A687C
:1028C0007B681B6822F016021A607B681B685A69D5
:1028D0007B681B6822F080025A617B681B6C002BAE
:1028E00003D17B689B6C002B07D07B681B681A6840
:1028F0007B681B6822F008021A607B68DB6D3F2250
:102900009A403B699A607B68012283F835207B6896
:10291000002283F834207B681B6D002B7ED07B68FF
:102920001B6D7868984779E07B681B681B6803F427
:102930008023002B1DD07B681B681B6803F40023D9
:10294000002B0DD17B685B6C002B31D07B685B6CFE
:10295000786898472CE000BF00000020B5814E1B2E
:102960007B68DB6B002B23D07B68DB6B7868984738
:102970001EE07B681B681B6803F48073002B0FD17B
:102980007B681B681A687B681B6822F010021A605B
:102990007B68012283F835207B68002283F834208D
:1029A0007B68DB6B002B03D07B68DB6B7868984718
:1029B0007B685B6D002B32D07B685B6D03F001039D
:1029C000002B22D07B68052283F835207B681B68AA
:1029D0001A687B681B6822F001021A60BB68013329
:1029E000BB607A699A4207D37B681B681B6803F057
:1029F0000103002BF2D100E000BF7B68012283F8C5
:102A000035207B68002283F834207B68DB6C002B48
:102A100005D07B68DB6C7868984700E000BF18370A
:102A2000BD4680BD80B485B000AFF860B9607A6003
:102A30003B60FB681B681A68FB681B6822F48022F5
:102A40001A60FB681B683A685A60FB689B68402BF9
:102A500008D1FB681B687A689A60FB681B68BA68D3
:102A6000DA6007E0FB681B68BA689A60FB681B685D
:102A70007A68DA6000BF1437BD465DF8047B7047A2
:102A800080B485B000AF78607B681B68DBB2103B18
:102A9000144AA2FB03231B09FB60134AFB6813447F
:102AA0001B781A467B68DA65FB68032B09D97B68BB
:102AB0001B6823F47F7323F003031A1D7B689A6558
:102AC00007E07B681B6823F47F7323F003037A68B5
:102AD00093657B689B6D18461437BD465DF8047B93
:102AE000704700BFABAAAAAAA488000880B485B02A
:102AF00000AF78600023FB737B689B6ABB607B68D8
:102B00009B69002B1FD1BB68032B56D801A252F83A
:102B100023F000BF252B0008372B0008252B0008C9
:102B2000BB2B00087B68DB6A03F08073002B46D068
:102B30000123FB7343E07B68DB6AB3F1C07F40D1C4
:102B40000123FB733DE07B689B69B3F5005F21D1F6
:102B5000BB68032B37D801A252F823F06D2B000875
:102B6000732B00086D2B0008852B00080123FB73D5
:102B700030E07B68DB6A03F08073002B25D00123F3
:102B8000FB7322E07B68DB6AB3F1C07F1FD10123B6
:102B9000FB731CE0BB68022B03D9BB68032B03D07B
:102BA00018E00123FB7315E07B68DB6A03F0807398
:102BB000002B0ED00123FB730BE000BF0AE000BF27
:102BC00008E000BF06E000BF04E000BF02E000BF75
:102BD00000E000BFFB7B18461437BD465DF8047B60
:102BE000704700BF80B489B000AF786039600023BF
:102BF0007B6100233B610023BB610023FB6159E142
:102C00000122FB6902FA03F37B613B681B687A6966
:102C100013403B613A697B699A4240F048813B68C6
:102C20005B6803F00303012B05D03B685B6803F08E
:102C30000303022B30D17B689B68BB61FB695B009F
:102C4000032202FA03F3DB43BA691340BB613B681A
:102C5000DA68FB695B0002FA03F3BA691343BB61EC
:102C60007B68BA699A607B685B68BB610122FB691B
:102C700002FA03F3DB43BA691340BB613B685B684C
:102C80001B0903F00102FB6902FA03F3BA6913435B
:102C9000BB617B68BA695A603B685B6803F00303F9
:102CA000032B17D07B68DB68BB61FB695B000322E9
:102CB00002FA03F3DB43BA691340BB613B689A68CD
:102CC000FB695B0002FA03F3BA691343BB617B68DB
:102CD000BA69DA603B685B6803F00303022B23D117
:102CE000FB69DA087B68083253F82230BB61FB6964
:102CF00003F007039B000F2202FA03F3DB43BA69D8
:102D00001340BB613B681A69FB6903F007039B0032
:102D100002FA03F3BA691343BB61FB69DA087B6803
:102D20000832B96943F822107B681B68BB61FB69F4
:102D30005B00032202FA03F3DB43BA691340BB6171
:102D40003B685B6803F00302FB695B0002FA03F374
:102D5000BA691343BB617B68BA691A603B685B68F8
:102D600003F44033002B00F0A2800023FB60574B9C
:102D70005B6C564A43F480435364544B5B6C03F4DE
:102D80008043FB60FB68524AFB699B08023352F8A0
:102D90002330BB61FB6903F003039B000F2202FA9F
:102DA00003F3DB43BA691340BB617B68494A934232
:102DB00019D07B68484A934213D07B68474A9342B4
:102DC0000DD07B68464A934207D07B68454A9342C0
:102DD00001D1042308E0072306E0032304E00223D3
:102DE00002E0012300E00023FA6902F003029200EE
:102DF0009340BA691343BB613549FB699B080233B1
:102E0000BA6941F82320384B9B68BB613B69DB43BF
:102E1000BA691340BB613B685B6803F48013002B05
:102E200003D0BA693B691343BB612F4ABB69936006
:102E30002D4BDB68BB613B69DB43BA691340BB6167
:102E40003B685B6803F40013002B03D0BA693B694D
:102E50001343BB61244ABB69D360234B5B68BB61EE
:102E60003B69DB43BA691340BB613B685B6803F4B1
:102E70000033002B03D0BA693B691343BB611A4A84
:102E8000BB695360184B1B68BB613B69DB43BA6984
:102E90001340BB613B685B6803F48033002B03D0B5
:102EA000BA693B691343BB610F4ABB691360FB6995
:102EB0000133FB61FB690F2B7FF6A2AE00BF00BFA1
:102EC0002437BD465DF8047B704700BF00380240E0
:102ED00000380140000002400004024000080240A7
:102EE000000C024000100240003C014080B483B05E
:102EF00000AF78600B467B8013467B707B78002B9D
:102F000003D07A887B689A6103E07B881A047B6827
:102F10009A6100BF0C37BD465DF8047B7047000026
:102F200080B586B000AF78607B68002B01D10123AB
:102F300067E27B681B6803F00103002B75D0884BA8
:102F40009B6803F00C03042B0CD0854B9B6803F0AB
:102F50000C03082B12D1824B5B6803F48003B3F59A
:102F6000800F0BD17E4B1B6803F40033002B5BD02A
:102F70007B685B68002B57D1012342E27B685B686A
:102F8000B3F5803F06D1764B1B68754A43F4803316
:102F900013601DE07B685B68B3F5A02F0CD1704B0C
:102FA0001B686F4A43F4802313606D4B1B686C4AA7
:102FB00043F4803313600BE0694B1B68684A23F4C9
:102FC00080331360664B1B68654A23F480231360CB
:102FD0007B685B68002B13D0FFF714F9386108E0B9
:102FE000FFF710F902463B69D31A642B01D903237A
:102FF00007E25B4B1B6803F40033002BF0D014E0B6
:10300000FFF700F9386108E0FFF7FCF802463B697A
:10301000D31A642B01D90323F3E1514B1B6803F44A
:103020000033002BF0D100E000BF7B681B6803F089
:103030000203002B63D04A4B9B6803F00C03002B68
:103040000BD0474B9B6803F00C03082B1CD1444B5F
:103050005B6803F48003002B16D1414B1B6803F01F
:103060000203002B05D07B68DB68012B01D0012314
:10307000C7E13B4B1B6823F0F8027B681B69DB0050
:10308000374913430B603AE07B68DB68002B20D0A4
:10309000344B01221A60FFF7B5F8386108E0FFF7FA
:1030A000B1F802463B69D31A022B01D90323A8E1E8
:1030B0002B4B1B6803F00203002BF0D0284B1B683E
:1030C00023F0F8027B681B69DB00254913430B6082
:1030D00015E0244B00221A60FFF794F8386108E0ED
:1030E000FFF790F802463B69D31A022B01D903235C
:1030F00087E11B4B1B6803F00203002BF0D17B68B8
:103100001B6803F00803002B36D07B685B69002B3B
:1031100016D0154B01221A60FFF774F8386108E0E9
:10312000FFF770F802463B69D31A022B01D903233B
:1031300067E10B4B5B6F03F00203002BF0D01BE049
:10314000094B00221A60FFF75DF838610EE0FFF7C7
:1031500059F802463B69D31A022B07D9032350E1E1
:103160000038024000004742800E4742884B5B6FA8
:1031700003F00203002BEAD17B681B6803F0040311
:10318000002B00F097800023FB75814B1B6C03F034
:103190008053002B0FD10023BB607D4B1B6C7C4AFE
:1031A00043F0805313647A4B1B6C03F08053BB6075
:1031B000BB680123FB75774B1B6803F48073002BFE
:1031C00018D1744B1B68734A43F480731360FFF784
:1031D00019F8386108E0FFF715F802463B69D31A81
:1031E000022B01D903230CE16A4B1B6803F48073A3
:1031F000002BF0D07B689B68012B06D1644B1B6FC2
:10320000634A43F0010313671CE07B689B68052B4E
:103210000CD15F4B1B6F5E4A43F0040313675C4B9A
:103220001B6F5B4A43F0010313670BE0584B1B6FA6
:10323000574A23F001031367554B1B6F544A23F081
:10324000040313677B689B68002B15D0FEF7DAFF39
:1032500038610AE0FEF7D6FF02463B69D31A41F215
:103260008832934201D90323CBE0494B1B6F03F013
:103270000203002BEED014E0FEF7C4FF38610AE031
:10328000FEF7C0FF02463B69D31A41F288329342EF
:1032900001D90323B5E03E4B1B6F03F00203002B63
:1032A000EED1FB7D012B05D1394B1B6C384A23F045
:1032B000805313647B689B69002B00F0A180344B22
:1032C0009B6803F00C03082B5CD07B689B69022B86
:1032D00041D1314B00221A60FEF794FF386108E0BB
:1032E000FEF790FF02463B69D31A022B01D9032354
:1032F00087E0274B1B6803F00073002BF0D17B683D
:10330000DA697B681B6A1A437B685B6A9B011A4314
:103310007B689B6A5B08013B1B041A437B68DB6A82
:103320001B061B4913434B601B4B01221A60FEF71F
:1033300069FF386108E0FEF765FF02463B69D31A72
:10334000022B01D903235CE0114B1B6803F00073CF
:10335000002BF0D054E0104B00221A60FEF752FF11
:10336000386108E0FEF74EFF02463B69D31A022B94
:1033700001D9032345E0064B1B6803F00073002BC3
:10338000F0D13DE07B689B69012B07D1012338E038
:103390000038024000700040600047421B4B5B68F1
:1033A000FB607B689B69012B28D0FB6803F48002DB
:1033B0007B68DB699A4221D1FB6803F03F027B689E
:1033C0001B6A9A421AD1FA6847F6C07313407A68AA
:1033D000526A9201934211D1FB6803F440327B6838
:1033E0009B6A5B08013B1B049A4207D1FB6803F010
:1033F00070627B68DB6A1B069A4201D0012300E001
:10340000002318461837BD4680BD00BF0038024073
:1034100080B584B000AF786039607B68002B01D143
:103420000123CCE0684B1B6803F007033A689A421B
:103430000CD9654B3A68D2B21A70634B1B6803F023
:1034400007033A689A4201D00123B8E07B681B6801
:1034500003F00203002B20D07B681B6803F00403F9
:10346000002B05D0594B9B68584A43F4E0539360B6
:103470007B681B6803F00803002B05D0534B9B6847
:10348000524A43F460439360504B9B6823F0F00230
:103490007B689B684D4913438B607B681B6803F016
:1034A0000103002B44D07B685B68012B07D1474B9D
:1034B0001B6803F40033002B19D101237FE07B68E4
:1034C0005B68022B03D07B685B68032B07D13F4B03
:1034D0001B6803F00073002B09D101236FE03B4B05
:1034E0001B6803F00203002B01D1012367E0374B77
:1034F0009B6823F003027B685B68344913438B604D
:10350000FEF780FEF8600AE0FEF77CFE0246FB68EC
:10351000D31A41F28832934201D903234FE02B4B57
:103520009B6803F00C027B685B689B009A42EBD1BE
:10353000254B1B6803F007033A689A420CD2224BD2
:103540003A68D2B21A70204B1B6803F007033A683E
:103550009A4201D0012332E07B681B6803F0040328
:10356000002B08D0194B9B6823F4E0527B68DB6882
:10357000164913438B607B681B6803F00803002B1C
:1035800009D0124B9B6823F460427B681B69DB0007
:103590000E4913438B6000F021F802460B4B9B68E9
:1035A0001B0903F00F030A49CB5C22FA03F3094A13
:1035B0001360094B1B681846FEF7A8FB002318464A
:1035C0001037BD4680BD00BF003C024000380240BD
:1035D0008C88000800000020040000202DE9B04F76
:1035E00090B000AF00237B630023FB6300233B63A9
:1035F0000023BB63594B9B6803F00C03082B0DD0D1
:10360000082B00F2A180002B02D0042B03D09BE0FA
:10361000534BBB639BE0534BBB6398E04F4B5B68E2
:1036200003F03F037B634D4B5B6803F48003002B87
:1036300028D04A4B5B689B0900223B627A623B6A56
:10364000C3F308000021474B03FB01F2002300FBFA
:1036500003F31344434AA0FB0212FA620A46BA6219
:10366000FA6A1344FB627B6B0022BB61FA61D7E903
:103670000623D7E90A01FCF7B3FD02460B461346C1
:10368000FB6353E0354B5B689B0900223B617A6129
:103690003B69C3F3080A4FF0000B52465B464FF0FC
:1036A00000004FF00001590141EAD2615001024689
:1036B0000B46B2EB0A0863EB0B094FF000024FF028
:1036C00000034FEA891343EA98634FEA8812B2EB8A
:1036D000080463EB09054FF000024FF00003EB0014
:1036E00043EA5473E20014461D4614EB0A033B60A0
:1036F00045EB0B037B604FF000024FF00003D7E96E
:10370000004529468B02214643EA915321468A020D
:10371000104619467B6B0022BB60FA60D7E9022392
:10372000FCF75EFD02460B461346FB630B4B5B68E2
:103730001B0C03F0030301335B003B63FA6B3B6B31
:10374000B2FBF3F3BB6302E0054BBB6300BFBB6B93
:1037500018464037BD46BDE8B08F00BF0038024074
:103760000024F40040787D0180B400AF034B1B6857
:103770001846BD465DF8047B704700BF000000207E
:1037800080B500AFFFF7F0FF0246054B9B689B0A30
:1037900003F007030349CB5C22FA03F3184680BD0C
:1037A000003802409C88000880B500AFFFF7DCFFBE
:1037B0000246054B9B685B0B03F007030349CB5C98
:1037C00022FA03F3184680BD003802409C880008A6
:1037D00080B483B000AF786039607B680F221A60D4
:1037E000124B9B6803F003027B685A600F4B9B6887
:1037F00003F0F0027B689A600C4B9B6803F4E05284
:103800007B68DA60094B9B68DB0803F4E0527B6855
:103810001A61074B1B6803F007023B681A6000BF80
:103820000C37BD465DF8047B704700BF003802408E
:10383000003C024080B582B000AF78607B68002B0E
:1038400001D1012341E07B6893F83D30DBB2002BCE
:1038500006D17B68002283F83C207868FEF71CF8CC
:103860007B68022283F83D207B681A687B680433FA
:103870001946104600F070FD7B68012283F846204F
:103880007B68012283F83E207B68012283F83F2079
:103890007B68012283F840207B68012283F8412065
:1038A0007B68012283F842207B68012283F8432051
:1038B0007B68012283F844207B68012283F845203D
:1038C0007B68012283F83D20002318460837BD4657
:1038D00080BD000080B485B000AF78607B6893F84D
:1038E0003D30DBB2012B01D0012344E07B68022292
:1038F00083F83D207B681B68DA687B681B6842F0B0
:103900000102DA607B681B681E4A934218D07B680C
:103910001B68B3F1804F13D07B681B681A4A93422F
:103920000ED07B681B68194A934209D07B681B68DC
:10393000174A934204D07B681B68164A934211D100
:103940007B681B689B6803F00703FB60FB68062B22
:1039500010D07B681B681A687B681B6842F0010204
:103960001A6007E07B681B681A687B681B6842F076
:1039700001021A60002318461437BD465DF8047B27
:10398000704700BF000001400004004000080040F4
:10399000000C00400040014080B582B000AF78606C
:1039A0007B68002B01D1012341E07B6893F83D3017
:1039B000DBB2002B06D17B68002283F83C207868BC
:1039C00000F039F87B68022283F83D207B681A6892
:1039D0007B6804331946104600F0BEFC7B68012268
:1039E00083F846207B68012283F83E207B68012211
:1039F00083F83F207B68012283F840207B68012206
:103A000083F841207B68012283F842207B680122F1
:103A100083F843207B68012283F844207B680122DD
:103A200083F845207B68012283F83D200023184657
:103A30000837BD4680BD80B483B000AF786000BF5A
:103A40000C37BD465DF8047B7047000080B584B03C
:103A500000AF786039603B68002B09D17B6893F830
:103A60003E30DBB2012B14BF01230023DBB222E086
:103A70003B68042B09D17B6893F83F30DBB2012B04
:103A800014BF01230023DBB215E03B68082B09D1EA
:103A90007B6893F84030DBB2012B14BF0123002375
:103AA000DBB208E07B6893F84130DBB2012B14BF36
:103AB00001230023DBB2002B01D0012368E03B6827
:103AC000002B04D17B68022283F83E2013E03B6880
:103AD000042B04D17B68022283F83F200BE03B6873
:103AE000082B04D17B68022283F8402003E07B6826
:103AF000022283F841207B681B680122396818463E
:103B000000F0D6FE7B681B68234A934207D17B688E
:103B10001B685A6C7B681B6842F400425A647B68DD
:103B20001B681D4A934218D07B681B68B3F1804F15
:103B300013D07B681B68194A93420ED07B681B68C0
:103B4000174A934209D07B681B68164A934204D0F7
:103B50007B681B68144A934211D17B681B689B6881
:103B600003F00703FB60FB68062B10D07B681B6823
:103B70001A687B681B6842F001021A6007E07B68E4
:103B80001B681A687B681B6842F001021A600023F8
:103B900018461037BD4680BD0000014000040040BB
:103BA00000080040000C00400040014080B586B095
:103BB00000AF786039607B68002B01D1012397E06A
:103BC0007B6893F83D30DBB2002B06D17B68002286
:103BD00083F83C207868FDF787FE7B68022283F833
:103BE0003D207B681B689B687A68126823F48043D9
:103BF00023F0070393607B681A687B6804331946D7
:103C0000104600F0A9FB7B681B689B687B617B68A2
:103C10001B689B693B617B681B681B6AFB603B6898
:103C20001B687A6913437B613B6923F4407323F07B
:103C300003033B613B689A683B689B691B02134323
:103C40003A6913433B613B6923F4406323F00C035F
:103C50003B613B6923F4704323F0F0033B613B6815
:103C6000DA683B68DB691B0213433A6913433B6123
:103C70003B681B691A013B681B6A1B0313433A69C3
:103C800013433B61FB6823F02203FB60FB6823F0D6
:103C90008803FB603B685A683B685B691B01134300
:103CA000FA681343FB607B681B687A699A607B68DB
:103CB0001B683A699A617B681B68FA681A627B68BC
:103CC000012283F846207B68012283F83E207B682E
:103CD000012283F83F207B68012283F842207B6821
:103CE000012283F843207B68012283F83D200023D2
:103CF00018461837BD4680BD80B584B000AF7860E7
:103D000039607B6893F83E30FB737B6893F83F30F3
:103D1000BB737B6893F842307B737B6893F84330C6
:103D20003B733B68002B10D1FB7B012B02D17B7BCB
:103D3000012B01D0012369E07B68022283F83E2039
:103D40007B68022283F8422031E03B68042B10D1CB
:103D5000BB7B012B02D13B7B012B01D0012355E022
:103D60007B68022283F83F207B68022283F843208D
:103D70001DE0FB7B012B08D1BB7B012B05D17B7B9D
:103D8000012B02D13B7B012B01D001233EE07B685C
:103D9000022283F83E207B68022283F83F207B6862
:103DA000022283F842207B68022283F843203B688A
:103DB000002B03D03B68042B08D00FE07B681B6806
:103DC00001220021184600F073FD16E07B681B6895
:103DD00001220421184600F06BFD0EE07B681B6891
:103DE00001220021184600F063FD7B681B68012258
:103DF0000421184600F05CFD00BF7B681B681A6850
:103E00007B681B6842F001021A60002318461037D5
:103E1000BD4680BD80B584B000AF78607B681B680C
:103E2000DB68FB607B681B681B69BB60BB6803F0D9
:103E30000203002B20D0FB6803F00203002B1BD0F1
:103E40007B681B686FF002021A617B6801221A7797
:103E50007B681B689B6903F00303002B03D0786821
:103E600000F05BFA05E0786800F04DFA786800F041
:103E70005EFA7B6800221A77BB6803F00403002B0C
:103E800020D0FB6803F00403002B1BD07B681B6869
:103E90006FF004021A617B6802221A777B681B6844
:103EA0009B6903F44073002B03D0786800F035FA67
:103EB00005E0786800F027FA786800F038FA7B6847
:103EC00000221A77BB6803F00803002B20D0FB68A0
:103ED00003F00803002B1BD07B681B686FF00802FF
:103EE0001A617B6804221A777B681B68DB6903F020
:103EF0000303002B03D0786800F00FFA05E0786820
:103F000000F001FA786800F012FA7B6800221A7754
:103F1000BB6803F01003002B20D0FB6803F01003F4
:103F2000002B1BD07B681B686FF010021A617B6846
:103F300008221A777B681B68DB6903F44073002B47
:103F400003D0786800F0E9F905E0786800F0DBF963
:103F5000786800F0ECF97B6800221A77BB6803F000
:103F60000103002B0CD0FB6803F00103002B07D0EA
:103F70007B681B686FF001021A617868FDF724FB0B
:103F8000BB6803F08003002B0CD0FB6803F08003B8
:103F9000002B07D07B681B686FF080021A6178687D
:103FA00000F022FEBB6803F04003002B0CD0FB683E
:103FB00003F04003002B07D07B681B686FF04002C2
:103FC0001A61786800F0BDF9BB6803F02003002B8C
:103FD0000CD0FB6803F02003002B07D07B681B6824
:103FE0006FF020021A61786800F0F4FD00BF10370E
:103FF000BD4680BD80B586B000AFF860B9607A601C
:104000000023FB75FB6893F83C30012B01D10223A0
:10401000AEE0FB68012283F83C207B680C2B00F2A9
:104020009F8001A252F823F05D4000086141000822
:1040300061410008614100089D400008614100089D
:104040006141000861410008DF400008614100084B
:1040500061410008614100081F410008FB681B68BE
:10406000B968184600F0FEF9FB681B689A69FB689E
:104070001B6842F008029A61FB681B689A69FB683A
:104080001B6822F004029A61FB681B689969BB688F
:104090001A69FB681B680A439A6164E0FB681B6845
:1040A000B968184600F044FAFB681B689A69FB6817
:1040B0001B6842F400629A61FB681B689A69FB689E
:1040C0001B6822F480629A61FB681B689969BB686F
:1040D0001B691A02FB681B680A439A6143E0FB688C
:1040E0001B68B968184600F08FFAFB681B68DA692C
:1040F000FB681B6842F00802DA61FB681B68DA693A
:10410000FB681B6822F00402DA61FB681B68D9694E
:10411000BB681A69FB681B680A43DA6123E0FB6825
:104120001B68B968184600F0D9FAFB681B68DA69A1
:10413000FB681B6842F40062DA61FB681B68DA699D
:10414000FB681B6822F48062DA61FB681B68D9692E
:10415000BB681B691A02FB681B680A43DA6102E04C
:104160000123FB7500BFFB68002283F83C20FB7D28
:1041700018461837BD4680BD80B584B000AF786062
:1041800039600023FB737B6893F83C30012B01D12D
:104190000223B4E07B68012283F83C207B68022282
:1041A00083F83D207B681B689B68BB60BB6823F07D
:1041B0007703BB60BB6823F47F43BB607B681B68ED
:1041C000BA689A603B681B68B3F5005F3ED0B3F5F0
:1041D000005F00F28780B3F5805F00F08680B3F562
:1041E000805F7FD8702B1AD0702B7BD8602B50D07B
:1041F000602B77D8502B3CD0502B73D8402B58D005
:10420000402B6FD8302B64D0302B6BD8202B60D054
:10421000202B67D8002B5CD0102B5AD062E07B6833
:1042200018683B6899683B685A683B68DB6800F02F
:104230001FFB7B681B689B68BB60BB6843F0770310
:10424000BB607B681B68BA689A604FE07B6818683F
:104250003B6899683B685A683B68DB6800F008FB7C
:104260007B681B689A687B681B6842F480429A608E
:104270003CE07B6818683B6859683B68DB681A4615
:1042800000F07CFA7B681B685021184600F0D5FAD4
:104290002CE07B6818683B6859683B68DB681A4605
:1042A00000F09BFA7B681B686021184600F0C5FA95
:1042B0001CE07B6818683B6859683B68DB681A46F5
:1042C00000F05CFA7B681B684021184600F0B5FAE4
:1042D0000CE07B681A683B681B681946104600F0C2
:1042E000ACFA03E00123FB7300E000BF7B6801220E
:1042F00083F83D207B68002283F83C20FB7B184636
:104300001037BD4680BD80B483B000AF786000BF79
:104310000C37BD465DF8047B704780B483B000AFB6
:10432000786000BF0C37BD465DF8047B704780B4F1
:1043300083B000AF786000BF0C37BD465DF8047BEA
:10434000704780B483B000AF786000BF0C37BD46C3
:104350005DF8047B7047000080B485B000AF7860E2
:1043600039607B681B68FB607B68374A93420FD0DB
:104370007B68B3F1804F0BD07B68344A934207D0FF
:104380007B68334A934203D07B68324A934208D118
:10439000FB6823F07003FB603B685B68FA681343BB
:1043A000FB607B68284A93421BD07B68B3F1804F47
:1043B00017D07B68254A934213D07B68244A9342E6
:1043C0000FD07B68234A93420BD07B68224A9342EA
:1043D00007D07B68214A934203D07B68204A9342EE
:1043E00008D1FB6823F44073FB603B68DB68FA6824
:1043F0001343FB60FB6823F080023B685B69134357
:10440000FB603B689A687B68DA623B681A687B6885
:104410009A627B680C4A934203D13B681A697B68B5
:104420001A637B681B6843F004027B681A607B6830
:1044300001225A617B68FA681A6000BF1437BD46D2
:104440005DF8047B704700BF00000140000400409D
:1044500000080040000C00400040014000440140C2
:104460000048014080B487B000AF786039607B6855
:104470001B6A7B617B681B6A23F001027B681A62FE
:104480007B685B683B617B689B69FB60FB6823F032
:104490007003FB60FB6823F00303FB603B681B6851
:1044A000FA681343FB607B6923F002037B613B687E
:1044B0009B687A6913437B617B681C4A93420CD1E9
:1044C0007B6923F008037B613B68DB687A691343EF
:1044D0007B617B6923F004037B617B68134A934211
:1044E00011D13B6923F480733B613B6923F4007372
:1044F0003B613B685B693A6913433B613B689B697D
:104500003A6913433B617B683A695A607B68FA6891
:104510009A613B685A687B685A637B687A691A6259
:1045200000BF1C37BD465DF8047B704700000140AA
:1045300080B487B000AF786039607B681B6A7B61AC
:104540007B681B6A23F010027B681A627B685B68D9
:104550003B617B689B69FB60FB6823F4E043FB6085
:10456000FB6823F44073FB603B681B681B02FA681E
:104570001343FB607B6923F020037B613B689B68EE
:104580001B017A6913437B617B681E4A93420DD1FC
:104590007B6923F080037B613B68DB681B017A69E0
:1045A00013437B617B6923F040037B617B68154A81
:1045B000934213D13B6923F480633B613B6923F44D
:1045C00000633B613B685B699B003A6913433B6155
:1045D0003B689B699B003A6913433B617B683A697E
:1045E0005A607B68FA689A613B685A687B689A638C
:1045F0007B687A691A6200BF1C37BD465DF8047B90
:10460000704700BF0000014080B487B000AF786001
:1046100039607B681B6A7B617B681B6A23F480724C
:104620007B681A627B685B683B617B68DB69FB6067
:10463000FB6823F07003FB60FB6823F00303FB605F
:104640003B681B68FA681343FB607B6923F40073C3
:104650007B613B689B681B027A6913437B617B68C3
:104660001D4A93420DD17B6923F400637B613B6853
:10467000DB681B027A6913437B617B6923F48063E7
:104680007B617B68144A934213D13B6923F48053C6
:104690003B613B6923F400533B613B685B691B0151
:1046A0003A6913433B613B689B691B013A691343B9
:1046B0003B617B683A695A607B68FA68DA613B68FB
:1046C0005A687B68DA637B687A691A6200BF1C37B4
:1046D000BD465DF8047B70470000014080B487B0A0
:1046E00000AF786039607B681B6A3B617B681B6A3E
:1046F00023F480527B681A627B685B687B617B680D
:10470000DB69FB60FB6823F4E043FB60FB6823F498
:104710004073FB603B681B681B02FA681343FB6035
:104720003B6923F400533B613B689B681B033A6978
:1047300013433B617B68104A934209D17B6923F4A0
:1047400080437B613B685B699B017A6913437B61B2
:104750007B687A695A607B68FA68DA613B685A68F4
:104760007B681A647B683A691A6200BF1C37BD46D1
:104770005DF8047B704700BF0000014080B487B043
:1047800000AFF860B9607A60FB681B6A7B61FB6808
:104790001B6A23F00102FB681A62FB689B693B619C
:1047A0003B6923F0F0033B617B681B013A691343CB
:1047B0003B617B6923F00A037B617A69BB68134321
:1047C0007B61FB683A699A61FB687A691A6200BF8B
:1047D0001C37BD465DF8047B704780B487B000AFDE
:1047E000F860B9607A60FB681B6A7B61FB681B6AD2
:1047F00023F01002FB681A62FB689B693B613B690E
:1048000023F470433B617B681B033A6913433B61AC
:104810007B6923F0A0037B61BB681B017A691343AA
:104820007B61FB683A699A61FB687A691A6200BF2A
:104830001C37BD465DF8047B704780B485B000AF7F
:10484000786039607B689B68FB60FB6823F07003CD
:10485000FB603A68FB68134343F00703FB607B6827
:10486000FA689A6000BF1437BD465DF8047B704754
:1048700080B487B000AFF860B9607A603B60FB68D5
:104880009B687B617B6923F47F437B613B681A02F1
:104890007B681A43BB6813437A6913437B61FB68E7
:1048A0007A699A6000BF1C37BD465DF8047B70478B
:1048B00080B487B000AFF860B9607A60BB6803F07D
:1048C0001F03012202FA03F37B61FB681A6A7B690A
:1048D000DB431A40FB681A62FB681A6ABB6803F084
:1048E0001F03796801FA03F31A43FB681A6200BFD9
:1048F0001C37BD465DF8047B7047000080B584B06E
:1049000000AF786039603B68002B09D17B6893F871
:104910004230DBB2012B14BF01230023DBB222E0C3
:104920003B68042B09D17B6893F84330DBB2012B41
:1049300014BF01230023DBB215E03B68082B09D12B
:104940007B6893F84430DBB2012B14BF01230023B2
:10495000DBB208E07B6893F84530DBB2012B14BF73
:1049600001230023DBB2002B01D0012363E03B686D
:10497000002B04D17B68022283F8422013E03B68BD
:10498000042B04D17B68022283F843200BE03B68B0
:10499000082B04D17B68022283F8442003E07B6863
:1049A000022283F845207B681B6804223968184678
:1049B00000F024F97B681B685A6C7B681B6842F422
:1049C00000425A647B681B681D4A934218D07B687A
:1049D0001B68B3F1804F13D07B681B68194A934260
:1049E0000ED07B681B68184A934209D07B681B680D
:1049F000164A934204D07B681B68154A934211D132
:104A00007B681B689B6803F00703FB60FB68062B51
:104A100010D07B681B681A687B681B6842F0010233
:104A20001A6007E07B681B681A687B681B6842F0A5
:104A300001021A60002318461037BD4680BD00BF32
:104A4000000001400004004000080040000C00404D
:104A50000040014080B485B000AF786039607B6869
:104A600093F83C30012B01D1022350E07B680122F6
:104A700083F83C207B68022283F83D207B681B681A
:104A80005B68FB607B681B689B68BB60FB6823F00E
:104A90007003FB603B681B68FA681343FB607B682C
:104AA0001B68FA685A607B681B681C4A934218D0DE
:104AB0007B681B68B3F1804F13D07B681B68184A72
:104AC00093420ED07B681B68164A934209D07B68DC
:104AD0001B68154A934204D07B681B68134A9342B3
:104AE0000CD1BB6823F08003BB603B685B68BA688D
:104AF0001343BB607B681B68BA689A607B680122BD
:104B000083F83D207B68002283F83C200023184670
:104B10001437BD465DF8047B704700BF00000140BC
:104B20000004004000080040000C0040004001402C
:104B300080B485B000AF786039600023FB607B688B
:104B400093F83C30012B01D102233DE07B68012228
:104B500083F83C20FB6823F0FF023B68DB681343CB
:104B6000FB60FB6823F440723B689B681343FB6067
:104B7000FB6823F480623B685B681343FB60FB685F
:104B800023F400623B681B681343FB60FB6823F45B
:104B900080523B681B691343FB60FB6823F400529F
:104BA0003B685B691343FB60FB6823F480423B680E
:104BB000DB691343FB607B681B68FA685A647B6897
:104BC000002283F83C20002318461437BD465DF8C8
:104BD000047B704780B483B000AF786000BF0C37AF
:104BE000BD465DF8047B704780B483B000AF786049
:104BF00000BF0C37BD465DF8047B704780B487B0BA
:104C000000AFF860B9607A60BB6803F00F0304225C
:104C100002FA03F37B61FB681A6A7B69DB431A4083
:104C2000FB681A62FB681A6ABB6803F00F037968B5
:104C300001FA03F31A43FB681A6200BF1C37BD4632
:104C40005DF8047B704780B582B000AF78607B6808
:104C5000002B01D1012342E07B6893F84130DBB2A5
:104C6000002B06D17B68002283F840207868FCF78F
:104C700097FF7B68242283F841207B681B68DA68F1
:104C80007B681B6822F40052DA60786800F06EFFDF
:104C90007B681B681A697B681B6822F490421A6162
:104CA0007B681B685A697B681B6822F02A025A617C
:104CB0007B681B68DA687B681B6842F40052DA6024
:104CC0007B6800225A647B68202283F841207B683D
:104CD000202283F842207B6800225A630023184672
:104CE0000837BD4680BD000080B58CB000AFF860CD
:104CF000B9601346FB80FB6893F84130DBB2202B90
:104D000062D1BB68002B02D0FB88002B01D10123AC
:104D10005BE0BA68FB681A62FB68FA889A84FB68F1
:104D2000FA88DA84FB6800225A64FB68212283F83F
:104D30004120FB689B6B274ADA63FB689B6B264A22
:104D40001A64FB689B6B254ADA64FB689B6B002244
:104D50001A6507F10803FB62FB68986BFB6A196828
:104D6000FB681B6804331A46FB88FDF7E7FB034624
:104D7000002B08D0FB6810225A64FB68202283F8BD
:104D80004120012321E0FB681B686FF040021A609C
:104D9000FB681B681433BB61BB6953E8003F7B6150
:104DA0007B6943F08003BB62FB681B681433BA6AFB
:104DB0007A623B62396A7A6A41E80023FB61FB69E7
:104DC000002BE5D1002300E0022318463037BD4612
:104DD00080BD00BFE953000883540008075600084F
:104DE00080B584B000AFF860B9601346FB80FB6803
:104DF00093F84230DBB2202B12D1BB68002B02D0DB
:104E0000FB88002B01D101230BE0FB6800221A6311
:104E1000FB881A46B968F86800F040FC034600E0D9
:104E2000022318461037BD4680BD000080B5BAB0D9
:104E300000AF78607B681B681B68C7F8E4307B684C
:104E40001B68DB68C7F8E0307B681B685B69C7F8E4
:104E5000DC300023C7F8D8300023C7F8D430D7F8A7
:104E6000E43003F00F03C7F8D830D7F8D830002B60
:104E70000FD1D7F8E43003F02003002B09D0D7F886
:104E8000E03003F02003002B03D0786800F0B0FD81
:104E900073E2D7F8D830002B00F0DE80D7F8DC3092
:104EA00003F00103002B06D1D7F8E03003F4907330
:104EB000002B00F0D180D7F8E43003F00103002B81
:104EC0000BD0D7F8E03003F48073002B05D07B685B
:104ED0005B6C43F001027B685A64D7F8E43003F05E
:104EE0000403002B0BD0D7F8DC3003F00103002BB8
:104EF00005D07B685B6C43F002027B685A64D7F88C
:104F0000E43003F00203002B0BD0D7F8DC3003F0C1
:104F10000103002B05D07B685B6C43F004027B68C7
:104F20005A64D7F8E43003F00803002B11D0D7F807
:104F3000E03003F02003002B05D1D7F8DC3003F07C
:104F40000103002B05D07B685B6C43F008027B6893
:104F50005A647B685B6C002B00F00A82D7F8E4305F
:104F600003F02003002B08D0D7F8E03003F0200333
:104F7000002B02D0786800F03BFD7B681B685B6902
:104F800003F04003402B0CBF01230023DBB2C7F822
:104F9000D4307B685B6C03F00803002B03D1D7F897
:104FA000D430002B4FD0786800F046FC7B681B683B
:104FB0005B6903F04003402B41D17B681B681433CD
:104FC000C7F89C30D7F89C3053E8003FC7F89830BA
:104FD000D7F8983023F04003C7F8D0307B681B68BF
:104FE0001433D7F8D020C7F8A820C7F8A430D7F8D2
:104FF000A410D7F8A82041E80023C7F8A030D7F8BC
:10500000A030002BD9D17B68DB6B002B13D07B68E1
:10501000DB6B8A4A1A657B68DB6B1846FDF756FB2B
:105020000346002B16D07B68DB6B1B6D7A68D26B56
:10503000104698470EE0786800F0C0F90AE07868FA
:1050400000F0BCF906E0786800F0B8F97B6800224F
:105050005A648DE100BF8BE17B681B6B012B40F034
:105060006781D7F8E43003F01003002B00F0608173
:10507000D7F8E03003F01003002B00F05981002333
:10508000BB607B681B681B68BB607B681B685B68D8
:10509000BB60BB687B681B685B6903F04003402B07
:1050A00040F0CE807B68DB6B1B685B68A7F8BE3086
:1050B000B7F8BE30002B00F0A9807B689B8DB7F855
:1050C000BE209A4280F0A2807B68B7F8BE20DA85C5
:1050D0007B68DB6BDB69B3F5807F00F088807B68E1
:1050E0001B680C33C7F88830D7F8883053E8003F86
:1050F000C7F88430D7F8843023F48073C7F8B83009
:105100007B681B680C33D7F8B820C7F89420C7F821
:105110009030D7F89010D7F8942041E80023C7F8D2
:105120008C30D7F88C30002BD9D17B681B681433B6
:105130007B677B6F53E8003F3B673B6F23F00103C6
:10514000C7F8B4307B681B681433D7F8B420C7F8AD
:105150008020FB67F96FD7F8802041E80023BB6708
:10516000BB6F002BE1D17B681B6814333B663B6E41
:1051700053E8003FFB65FB6D23F04003C7F8B030F8
:105180007B681B681433D7F8B020FA66BB66B96E2B
:10519000FA6E41E800237B667B6E002BE3D17B68CF
:1051A000202283F842207B6800221A637B681B68F8
:1051B0000C33FB64FB6C53E8003FBB64BB6C23F017
:1051C0001003C7F8AC307B681B680C33D7F8AC20F1
:1051D000BA657B65796DBA6D41E800233B653B6D2F
:1051E000002BE3D17B68DB6B1846FDF7FFF97B688A
:1051F00002225A637B689A8D7B68DB8D9BB2D31A3F
:105200009BB21946786800F0E3F8B3E07B689B8DA9
:10521000B7F8BE209A4240F0AD807B68DB6BDB695B
:10522000B3F5807F40F0A6807B6802225A637B68DA
:105230009B8D1946786800F0CBF89BE0FF5800087A
:105240007B689A8D7B68DB8D9BB2D31AA7F8CE3032
:105250007B68DB8D9BB2002B00F08E80B7F8CE30E0
:10526000002B00F089807B681B680C33BB63BB6B31
:1052700053E8003F7B637B6B23F49073C7F8C8301F
:105280007B681B680C33D7F8C8207A643B64396CA0
:105290007A6C41E80023FB63FB6B002BE3D17B6856
:1052A0001B6814337B627B6A53E8003F3B623B6AB6
:1052B00023F00103C7F8C4307B681B681433D7F8A8
:1052C000C4203A63FB62F96A3A6B41E80023BB628F
:1052D000BB6A002BE3D17B68202283F842207B68E5
:1052E00000221A637B681B680C333B613B6953E8FF
:1052F000003FFB60FB6823F01003C7F8C0307B68F9
:105300001B680C33D7F8C020FA61BB61B969FA6930
:1053100041E800237B617B69002BE3D17B6802229B
:105320005A63B7F8CE301946786800F051F823E098
:10533000D7F8E43003F08003002B09D0D7F8E03031
:1053400003F08003002B03D0786800F0E9FA14E042
:10535000D7F8E43003F04003002B0ED0D7F8E0304C
:1053600003F04003002B08D0786800F029FB04E02C
:1053700000BF02E000BF00E000BFE837BD4680BDCF
:1053800080B483B000AF786000BF0C37BD465DF8D5
:10539000047B704780B483B000AF786000BF0C37E7
:1053A000BD465DF8047B704780B483B000AF786081
:1053B00000BF0C37BD465DF8047B704780B483B0F6
:1053C00000AF786000BF0C37BD465DF8047B7047C6
:1053D00080B483B000AF78600B467B8000BF0C3791
:1053E000BD465DF8047B704780B590B000AF786033
:1053F0007B689B6BFB637B681B681B6803F4807393
:10540000002B37D1FB6B0022DA84FB6B1B68143353
:105410007B627B6A53E8003F3B623B6A23F0800378
:10542000BB63FB6B1B681433BA6B3A63FB62F96AAC
:105430003A6B41E80023BB62BB6A002BE5D1FB6BF2
:105440001B680C333B613B6953E8003FFB60FB6822
:1054500043F040037B63FB6B1B680C337A6BFA6190
:10546000BB61B969FA6941E800237B617B69002B64
:10547000E5D102E0F86BFFF783FF00BF4037BD4680
:1054800080BD80B584B000AF78607B689B6BFB60AB
:10549000F868FFF77FFF00BF1037BD4680BD80B5BD
:1054A0009CB000AF78607B689B6BFB667B681B6879
:1054B0001B6803F48073002B72D1FB6E0022DA8527
:1054C000FB6E1B680C33FB64FB6C53E8003FBB6452
:1054D000BB6C23F48073BB66FB6E1B680C33BA6E27
:1054E000BA657B65796DBA6D41E800233B653B6D1C
:1054F000002BE5D1FB6E1B681433BB63BB6B53E819
:10550000003F7B637B6B23F001037B66FB6E1B68B4
:1055100014337A6E7A643B64396C7A6C41E8002308
:10552000FB63FB6B002BE5D1FB6E1B6814337B62C6
:105530007B6A53E8003F3B623B6A23F040033B66D3
:10554000FB6E1B6814333A6E3A63FB62F96A3A6B7E
:1055500041E80023BB62BB6A002BE5D1FB6E202231
:1055600083F84220FB6E1B6B012B19D1FB6E1B686D
:105570000C333B613B6953E8003FFB60FB6823F061
:105580001003FB65FB6E1B680C33FA6DFA61BB619F
:10559000B969FA6941E800237B617B69002BE5D199
:1055A000FB6E00225A63FB6E1B6B012B06D1FB6E58
:1055B0009B8D1946F86EFFF70BFF02E0F86EFBF7C4
:1055C00023FE00BF7037BD4680BD80B584B000AFFC
:1055D00078607B689B6BFB60FB6801225A63FB6809
:1055E0001B6B012B08D1FB689B8D5B089BB2194696
:1055F000F868FFF7EDFE02E0F868FFF7D5FE00BFA0
:105600001037BD4680BD80B584B000AF7860002300
:10561000FB607B689B6BBB60BB681B685B6903F0CE
:105620008003802B0CBF01230023DBB2FB60BB682F
:1056300093F84130DBB2212B08D1FB68002B05D059
:10564000BB680022DA84B86800F0CEF8BB681B683B
:105650005B6903F04003402B0CBF01230023DBB246
:10566000FB60BB6893F84230DBB2222B08D1FB68A9
:10567000002B05D0BB680022DA85B86800F0DCF8A2
:10568000BB685B6C43F01002BB685A64B868FFF7F4
:1056900095FE00BF1037BD4680BD000080B598B0B4
:1056A00000AFF860B9601346FB80BA68FB689A6285
:1056B000FB68FA889A85FB6800225A64FB682222FC
:1056C00083F84220FB68DB6B444ADA63FB68DB6BE0
:1056D000434A1A64FB68DB6B424ADA64FB68DB6BA3
:1056E00000221A6507F10803FB65FB68D86BFB68AD
:1056F0001B6804331946FB6D1A68FB88FCF71EFF14
:105700000346002B08D0FB6810225A64FB68202255
:1057100083F8422001235DE000233B61FB681B68A6
:105720001B683B61FB681B685B683B613B69FB680E
:105730001B69002B19D0FB681B680C333B643B6C66
:1057400053E8003FFB63FB6B43F48073BB65FB686E
:105750001B680C33BA6DFA64BB64B96CFA6C41E82F
:1057600000237B647B6C002BE5D1FB681B68143342
:10577000FB62FB6A53E8003FBB62BB6A43F0010374
:105780007B65FB681B6814337A6DBA637B63796B46
:10579000BA6B41E800233B633B6B002BE5D1FB6810
:1057A0001B681433BB61BB6953E8003F7B617B69B5
:1057B00043F040033B65FB681B6814333A6D7A6223
:1057C0003B62396A7A6A41E80023FB61FB69002B7E
:1057D000E5D1002318466037BD4680BD9F540008C0
:1057E000CB5500080756000880B489B000AF786038
:1057F0007B681B680C33FB60FB6853E8003FBB60B1
:10580000BB6823F0C003FB617B681B680C33FA693B
:10581000BA617B617969BA6941E800233B613B6900
:10582000002BE5D17B68202283F8412000BF24377C
:10583000BD465DF8047B704780B495B000AF7860DA
:105840007B681B680C337B637B6B53E8003F3B63D7
:105850003B6B23F49073FB647B681B680C33FA6C1E
:105860003A64FB63F96B3A6C41E80023BB63BB6BA2
:10587000002BE5D17B681B6814333B623B6A53E81D
:10588000003FFB61FB6923F00103BB647B681B687D
:105890001433BA6CFA62BB62B96AFA6A41E800234F
:1058A0007B627B6A002BE5D17B681B6B012B19D1D6
:1058B0007B681B680C33FB60FB6853E8003FBB60F0
:1058C000BB6823F010037B647B681B680C337A6C25
:1058D000BA617B617969BA6941E800233B613B6940
:1058E000002BE5D17B68202283F842207B680022D0
:1058F0001A6300BF5437BD465DF8047B704780B51E
:1059000084B000AF78607B689B6BFB60FB68002213
:10591000DA85F868FFF752FD00BF1037BD4680BD3D
:1059200080B485B000AF78607B6893F84130DBB21B
:10593000212B3ED17B689B68B3F5805F14D17B68D7
:105940001B69002B10D17B681B6AFB60FB681B88FE
:105950001A467B681B68C2F308025A607B681B6AA0
:105960009A1C7B681A6208E07B681B6A591C7A687B
:1059700011621A787B681B685A607B68DB8C9BB26B
:10598000013B9BB27A681946D184002B0FD17B680A
:105990001B68DA687B681B6822F08002DA607B682B
:1059A0001B68DA687B681B6842F04002DA600023FB
:1059B00000E0022318461437BD465DF8047B7047AB
:1059C00080B582B000AF78607B681B68DA687B685E
:1059D0001B6822F04002DA607B68202283F84120B5
:1059E0007868FFF7CDFC002318460837BD4680BD18
:1059F00080B58CB000AF78600023FB620023BB62EF
:105A00007B6893F84230DBB2222B40F0AA807B689F
:105A10009B68B3F5805F15D17B681B69002B11D1A2
:105A20007B689B6ABB627B681B685B689BB2C3F345
:105A300008039AB2BB6A1A807B689B6A9A1C7B68CF
:105A40009A6224E07B689B6AFB627B689B68B3F583
:105A5000805F07D07B689B68002B0AD17B681B693D
:105A6000002B06D17B681B685B68DAB2FB6A1A7090
:105A700008E07B681B685B68DBB203F07F03DAB287
:105A8000FB6A1A707B689B6A5A1C7B689A627B6807
:105A9000DB8D9BB2013B9BB27A681946D185002B06
:105AA0005DD17B681B68DA687B681B6822F0200286
:105AB000DA607B681B68DA687B681B6822F4807296
:105AC000DA607B681B685A697B681B6822F00102F8
:105AD0005A617B68202283F842207B6800225A6347
